:10000000112480914000811105C098ED21E094BF3A
:100010002093410083FD03C0982F957321F48093B2
:1000200040008CBBEDC08BE0BCD0649A88E080932C
:10003000750483E08093E2059AE890930808809322
:10004000070880EC80930608079A87E08150A9F49E
:10005000A895E12C40E6F42E98D08134D1F495D0C7
:10006000C82FA8D081E0C23821F08AE1C13809F058
:1000700083E084D080E182D0EFCF179A2AE238E67D
:10008000A8959091040897FDE4CF21503109C1F75C
:10009000DDCF823419F484E195D0ECCF853411F4AE
:1000A00085E0FACF853531F470D0082F6ED0182F47
:1000B00081D0E0CF863521F484E084D080E0D9CFB0
:1000C000843609F02BC061D0C82FD0E0DC2FCC27BC
:1000D0005CD0C82B6E01D694C79457D0D05A812CCF
:1000E00030E6932E54018FEFA81AB80A4ED0F401CF
:1000F00080834501AC16BD06A9F75CD0F801D70195
:1001000088E067D0E89582E064D09C2D0D901D902A
:10011000E89532969A95D1F71124ACCF8437F1F453
:1001200034D0C82FD0E0DC2FCC272FD0C82B2DD037
:10013000D82E40D0F6E4DF1208C06801F6018591A0
:100140006F011CD02197D1F795CF1C5EF8018081FB
:100150000F5F1F4F13D02197C9F78CCF853741F41C
:1001600029D08EE10BD086E909D08091021181CF90
:10017000813509F09DCF81E014D09ACF9091040889
:1001800095FFFCCF8093020808958091040887FFB3
:10019000FCCF909101088091000892FD01C0A895C4
:1001A00008959091010190FDFCCF98ED94BF80934C
:1001B00000010895EADF803219F081E0F2DFFFCF1D
:1001C00084E1DCCFCF93C82FE0DFC150E9F7CF91B6
:1001D000F1CF9DE994BF1092001094BF809300105E
:0201E000089580
:0401FA00F8950895D7
:0201FE00011AE4
:00000001FF
