:10000000112480914000811105C098ED21E094BF3A
:100010002093410083FD03C0982F957321F48093B2
:1000200040008CBBEDC088E0C2D0009A88E080938D
:1000300011048AE88093080883E08093070880EC25
:1000400080930608079A87E08150A9F4A895E12CCF
:1000500040E4F42EA0D08134D1F49DD0C82FB0D08C
:1000600081E0C23821F08AE1C13809F083E08CD008
:1000700080E18AD0EFCF179A2AE238E6A8959091CE
:10008000040897FDE4CF21503109C1F7DDCF823458
:1000900019F484E19DD0ECCF853411F485E0FACFDA
:1000A000853531F478D0082F76D0182F89D0E0CF5D
:1000B000863561F470D08D3439F46DD06CD08BBF3F
:1000C00081E086D080E0D3CF83E0FBCF843609F097
:1000D0002BC061D0C82FD0E0DC2FCC275CD0C82B40
:1000E0006E01D694C79457D0D05C812C30E4932E07
:1000F00054018FEFA81AB80A4ED0F401808345014D
:10010000AC16BD06A9F75CD0F801D70188E067D02E
:10011000E89582E064D09C2D0D901D90E895329674
:100120009A95D1F71124A4CF8437F1F434D0C82F95
:10013000D0E0DC2FCC272FD0C82B2DD0D82E40D00C
:10014000F6E4DF1208C06801F60187916F011CD048
:100150002197D1F78DCF1C5EF80180810F5F1F4F73
:1001600013D02197C9F784CF853741F429D08EE188
:100170000BD087E909D08091021179CF813509F040
:1001800095CF81E014D092CF9091040895FFFCCFD9
:100190008093020808958091040887FFFCCF909116
:1001A00001088091000892FD01C0A89508959091E2
:1001B000010190FDFCCF98ED94BF8093000108955C
:1001C000EADF803219F081E0F2DFFFCF84E1DCCF9B
:1001D000CF93C82FE0DFC150E9F7CF91F1CF9DE970
:0E01E00094BF1092001094BF809300100895F9
:0401FA00F8950895D7
:0201FE00011AE4
:00000001FF
