:10000000112480914000882369F0282F30E083FD7F
:1000100003C02D7F232B31F4809340008CBB80E004
:10002000C4D0EEC0A895809A889A1092E3058AE819
:100030008093880883E08093870880EC809386080B
:1000400088E0B3D0079A87E0815071F4A895E12C3D
:1000500040E4F42E9ED08134D9F49BD0C82FAED08A
:10006000C23871F480E010C0179A2AE238E6A895E9
:100070009091840897FDEBCF21503109C1F7E4CF6F
:1000800089E0C13809F083E07DD080E17BD0E2CF08
:10009000823419F484E19AD0F8CF853411F485E0E4
:1000A000FACF853531F475D0082F73D0182F86D04C
:1000B000ECCF863559F46DD08D3431F46AD069D0E7
:1000C0008BBF81E083D0CECF83E0FCCF843651F567
:1000D00060D0C82FD0E0DC2FCC275BD0C82B6E01BE
:1000E000D694C79456D0D05C812C30E4932E540122
:1000F0008FEFA81AB80A4DD0D4018C934501AC16E5
:10010000BD06A9F75BD088E068D0F801E89582E0E9
:1001100064D0F801D7010D901D90F895CA94D9F7D5
:100120001124B3CF8437F1F434D0C82FD0E0DC2FC2
:10013000CC272FD0C82B2DD0B82E40D06801B6E4E4
:10014000BB1207C0F60187916F011CD02197D1F730
:100150009CCF1C5EF80180810F5F1F4F13D0219749
:10016000C9F793CF853741F429D08EE10BD087E9C9
:1001700009D08091021188CF813509F098CF81E0B4
:1001800014D095CF9091840895FFFCCF809382087E
:1001900008958091840887FFFCCF90918108809119
:1001A000800892FD01C0A89508959091010190FDED
:1001B000FCCF98ED94BF809300010895EADF803270
:1001C00019F081E0F2DFFFCF84E1DCCFCF93C82FBD
:1001D000E0DFC150E9F7CF91F1CF9DE994BF1092D4
:0A01E000001094BF809300100895F2
:0201FE000009F6
:00000001FF
