:10000000112480914000811105C098ED21E094BF3A
:1000100020934100982F9D7321F0809340008CBB6A
:10002000EFC088E0B9D0809A889A1092E3058AE8F8
:100030008093880883E08093870880EC809386080B
:10004000079A87E08150A1F4A895FF24FA9498D0EC
:100050008134D1F495D0182FA8D081E0123821F046
:1000600089E1113809F083E084D080E182D0EFCFBC
:10007000179A2AE238E6A8959091840897FDE5CF73
:1000800021503109C1F7DECF823419F484E195D0D3
:10009000ECCF853411F485E0FACF853531F470D09A
:1000A000C82F6ED0D82F81D0E0CF863521F484E0E0
:1000B00084D080E0D9CF843691F562D0082F10E04B
:1000C000102F00275DD0082BC80196958795E82E44
:1000D00057D01059C12C30E7D32E56018FEFA81AF4
:1000E000B80A4ED0F60180836501A016B106A9F7C3
:1000F0005CD088E069D0FE01F058F08282E064D0E4
:10010000E0E0F0E780819181DF01AC0FBD1FB05FBF
:100110008D939C93EA943296E110F4CFA6CF843766
:10012000B9F42ED0082F10E0102F002729D0082B6B
:1001300027D0E82E3AD0F6E4EF1208C0D0588881D4
:10014000219617D001501109D1F78FCFDC5EF7CF80
:10015000853749F42AD08EE10CD08091011109D065
:100160008091021181CF813509F09DCF81E014D0BB
:100170009ACF9091840895FFFCCF809382080895D0
:100180008091840887FFFCCF90918108809180083E
:1001900092FD01C0A89508959091010190FDFCCFBA
:1001A00098ED94BF809300010895EADF803219F042
:1001B00081E0F2DFFFCF84E1DCCFCF93C82FE0DF17
:1001C000C150E9F7CF91F1CF9DE994BF1092001093
:0801D00094BF80930010089514
:0401FA00F8950895D7
:0201FE000119E5
:00000001FF
