:1000000001C0EBC0112480914000811105C098ED22
:1000100021E094BF2093410083FD02C0823021F48F
:10002000809340008CBBECC08BE0B7D0809A889A5C
:100030001092E3058AE88093880883E0809387081C
:1000400080EC80938608079A87E08150A9F4A895F0
:10005000E12C40E6F42E95D08134D1F492D0C82F13
:10006000A5D081E0C23821F089E0C13809F083E0F1
:1000700081D080E17FD0EFCF179A2AE238E6A895A9
:100080009091840897FDE4CF21503109C1F7DDCF6D
:10009000823419F484E192D0ECCF853411F485E0F8
:1000A000FACF853531F46DD0082F6BD0182F7ED064
:1000B000E0CF863521F484E081D080E0D9CF84364A
:1000C00049F55FD0C82FD0E0DC2FCC275AD0C82B01
:1000D0006E01D694C79455D0D05A812C30E6932E19
:1000E00054018FEFA81AB80A4CD0D4018C93450163
:1000F000AC16BD06A9F75AD0F801D70188E065D043
:10010000E89582E062D00D901D90F895CA94D9F7D9
:100110001124AFCF8437F1F434D0C82FD0E0DC2FD6
:10012000CC272FD0C82B2DD0D82E40D0B6E4DB1250
:1001300008C06801F60185916F011CD02197D1F7A5
:1001400098CF1C5EF80180810F5F1F4F13D021975D
:10015000C9F78FCF853741F429D08EE10BD086E9DE
:1001600009D08091021184CF813509F0A0CF81E0C0
:1001700014D09DCF9091840895FFFCCF8093820886
:1001800008958091840887FFFCCF90918108809129
:10019000800892FD01C0A89508959091010190FDFD
:1001A000FCCF98ED94BF809300010895EADF803280
:1001B00019F081E0F2DFFFCF84E1DCCFCF93C82FCD
:1001C000E0DFC150E9F7CF91F1CF9DE994BF1092E4
:1001D000001094BF80930010089567FD02C0862F21
:0801E000F4CFFC0140830895F7
:0201FE000109F5
:00000001FF
