:10000000112480914000811105C098ED21E094BF3A
:1000100020934100982F9D7321F0809340008CBB6A
:10002000EFC08BE0C0D0209A289A1092E2058AE8AF
:100030008093680883E08093670880EC809366086B
:10004000079A87E08150A9F4A895E12C40E4F42EAA
:100050009ED08134D1F49BD0C82FAED081E0C2387D
:1000600021F089E1C13809F083E08AD080E188D0AD
:10007000EFCF179A2AE238E6A8959091640897FD89
:10008000E4CF21503109C1F7DDCF823419F484E186
:100090009BD0ECCF853411F485E0FACF853531F46F
:1000A00076D0082F74D0182F87D0E0CF863561F432
:1000B0006ED08D3439F46BD06AD08BBF81E084D0A0
:1000C00080E0D3CF83E0FBCF843651F560D0C82FDA
:1000D000D0E0DC2FCC275BD0C82B6E01D694C79420
:1000E00056D0D05C812C30E4932E54018FEFA81AA7
:1000F000B80A4DD0F40180834501AC16BD06A9F7BE
:100100005BD09C2DF801D70188E065D0E89582E0AE
:1001100062D00D901D90F8959A95D9F71124A6CF2D
:100120008437F1F434D0C82FD0E0DC2FCC272FD087
:10013000C82B2DD0D82E40D0F6E4DF1208C06801BD
:10014000F60187916F011CD02197D1F78FCF1C5EEC
:10015000F80180810F5F1F4F13D02197C9F786CF19
:10016000853741F429D08EE10BD087E909D0809101
:1001700002117BCF813509F097CF81E014D094CF65
:100180009091640895FFFCCF809362080895809158
:10019000640887FFFCCF909161088091600892FD10
:1001A00001C0A89508959091010190FDFCCF98EDB4
:1001B00094BF809300010895EADF803219F081E056
:1001C000F2DFFFCF84E1DCCFCF93C82FE0DFC15057
:1001D000E9F7CF91F1CF9DE994BF1092001094BF41
:0601E00080930010089559
:0401FA00F8950895D7
:0201FE000119E5
:00000001FF
