:10000000112480914000811105C098ED21E094BF3A
:1000100020934100982F9D7321F0809340008CBB6A
:10002000EFC08BE0B8D0009A089A1092E2058AE8F7
:100030008093080883E08093070880EC809306088B
:10004000079A87E08150A9F4A895E12C40E6F42EA8
:1000500096D08134D1F493D0C82FA6D081E0C23895
:1000600021F089E1C13809F083E082D080E180D0BD
:10007000EFCF179A2AE238E6A8959091040897FDE9
:10008000E4CF21503109C1F7DDCF823419F484E186
:1000900093D0ECCF853411F485E0FACF853531F477
:1000A0006ED0082F6CD0182F7FD0E0CF863521F48A
:1000B00084E082D080E0D9CF843651F560D0C82F5B
:1000C000D0E0DC2FCC275BD0C82B6E01D694C79430
:1000D00056D0D05A812C30E6932E54018FEFA81AB7
:1000E000B80A4DD0F40180834501AC16BD06A9F7CE
:1000F0005BD09C2DF801D70188E065D0E89582E0BF
:1001000062D00D901D90F8959A95D9F71124AECF35
:100110008437F1F434D0C82FD0E0DC2FCC272FD097
:10012000C82B2DD0D82E40D0F6E4DF1208C06801CD
:10013000F60185916F011CD02197D1F797CF1C5EF6
:10014000F80180810F5F1F4F13D02197C9F78ECF21
:10015000853741F429D08EE10BD086E909D0809112
:10016000021183CF813509F09FCF81E014D09CCF5D
:100170009091040895FFFCCF809302080895809128
:10018000040887FFFCCF909101088091000892FD40
:1001900001C0A89508959091010190FDFCCF98EDC4
:1001A00094BF809300010895EADF803219F081E066
:1001B000F2DFFFCF84E1DCCFCF93C82FE0DFC15067
:1001C000E9F7CF91F1CF9DE994BF1092001094BF51
:0601D00080930010089569
:0401FA00F8950895D7
:0201FE000119E5
:00000001FF
