:10000000112480914000811105C098ED21E094BF3A
:100010002093410083FD03C0982F957321F48093B2
:1000200040008CBBEDC08BE0B9D0049A88E080938F
:10003000150481E08093E2058AE88093080883E054
:100040008093070880EC80930608079A87E0815028
:10005000A1F4A895FF24FA9495D08134D1F492D0DC
:10006000182FA5D081E0123821F08AE1113809F06B
:1000700083E081D080E17FD0EFCF179A2AE238E683
:10008000A8959091040897FDE5CF21503109C1F75B
:10009000DECF823419F484E192D0ECCF853411F4B0
:1000A00085E0FACF853531F46DD0C82F6BD0D82FCD
:1000B0007ED0E0CF863521F484E081D080E0D9CFB6
:1000C000843681F55FD0082F10E0102F00275AD01A
:1000D000082B58D01059C12C20E7D22E56018FEF93
:1000E000A81AB80A4FD0F60180836501A016B106A0
:1000F000A9F75DD088E06AD0FE01F058F08282E076
:1001000065D0E0E0F0E7AE16BF0609F4B3CFCF014B
:1001100001962081FC01EC0FFD1FE150F04F208380
:10012000FC01F1CF8437B9F42DD0082F10E0102F47
:10013000002728D0082B26D0D82E39D0F6E4DF129D
:1001400008C0D0588881219616D001501109D1F7E6
:1001500091CFDC5EF7CF853741F429D08EE10BD00B
:1001600084E909D08091021184CF813509F0A0CFB4
:1001700081E014D09DCF9091040895FFFCCF80932F
:10018000020808958091040887FFFCCF9091010830
:100190008091000892FD01C0A895089590910101F9
:1001A00090FDFCCF98ED94BF809300010895EADFA5
:1001B000803219F081E0F2DFFFCF84E1DCCFCF9312
:1001C000C82FE0DFC150E9F7CF91F1CF9DE994BF8F
:0C01D0001092001094BF8093001008955E
:0401FA00F8950895D7
:0201FE00011AE4
:00000001FF
