:1000000001C031C1112480914000282F30E083FDD0
:1000100003C02D7F232B31F4809340008CBB80E004
:100020000AD1EEC1A895809A889A1092E3058AE8D1
:1000300090E0809388089093890881E080938B08F2
:1000400083E0809387081092850880EC809386086F
:100050008BE0F1D0079A87E0815089F4A89548E0B9
:10006000942E52E0852E63E1762ED9D08134D9F4D6
:10007000D6D0182FE9D0123871F480E010C0179A4A
:100080002AE238E6A8959091840897FDE8CF2150A0
:100090003109C1F7E1CF89E0113809F083E0B8D028
:1000A00080E1B6D0E2CF823419F484E1D5D0F8CF24
:1000B000853411F485E0FACF853531F4B0D0C82FFE
:1000C000AED0D82FC1D0ECCF863519F484E0C4D09F
:1000D000D4CF843609F065C0A2D0082F10E0102FCD
:1000E00000279DD0082B9BD0682E580180E9B81AB4
:1000F000E12C30E7F32E67019FEFC91AD90A8FD0A0
:10010000F70180837601CA14DB04A9F79DD07E0134
:10011000F5E46F121EC08DE984BF70920010E0E01C
:10012000F0E7CE16DF0651F4809102108370E1F7FC
:1001300081E09DE994BF80930010B2CFCF0101967A
:100140002081FC01EC0FFD1FE150FC452083FC01E8
:10015000E8CFEDE9E4BF9092001070E060E0CE01DE
:1001600052D0809102108370E1F781E0FDE9F4BF85
:1001700080930010F4BF80920010C12C90E7D92E1C
:10018000F601619171916F01C7013DD0F2E0EF0E70
:10019000F11C02501109A1F7809102108370E1F760
:1001A000C7CF8437F1F43BD0082F10E0102F002781
:1001B00036D0082B34D0D82E47D07E01E6E4DE12AC
:1001C00008C0F70185917F0123D001501109C9F7BB
:1001D00067CFDC5E888121961BD001501109D1F7D1
:1001E0005FCF853751F430D08091001111D08091CC
:1001F00001110ED08091021152CF813509F062CFEA
:1002000081E019D05FCFFC010B01E895112408951E
:100210009091840895FFFCCF809382080895809187
:10022000840887FFFCCF909181088091800892FD1F
:1002300001C0A89508959091010190FDFCCF98ED23
:1002400094BF809300010895EADF803219F081E0C5
:10025000F2DFFFCF84E1DCCFCF93C82FE0DFC150C6
:10026000E9F7CF91F1CF8DE984BF609300108091C1
:0802700002108370E1F708950C
:0203FE000009F4
:00000001FF
