:1000000001C03AC1112480914000282F30E083FDC7
:1000100003C02D7F232B31F4809340008CBB80E004
:1000200013D1EEC1A895C49ACC9A84E08093E305DD
:100030008AE890E08093A8089093A90881E08093D3
:10004000AB0883E08093A7081092A50880EC80930A
:10005000A6088BE0F9D0079A87E0815089F4A8952B
:1000600048E0942E52E0852E63E1762EE1D0813473
:10007000D9F4DED0182FF1D0123871F480E010C01E
:10008000179A2AE238E6A8959091A40897FDE8CF40
:1000900021503109C1F7E1CF89E0113809F083E03F
:1000A000C0D080E1BED0E2CF823419F484E1DDD04B
:1000B000F8CF853411F485E0FACF853531F4B8D026
:1000C000C82FB6D0D82FC9D0ECCF863559F4B0D0D0
:1000D0008D3431F4ADD0ACD08BBF81E0C6D0CECF63
:1000E00083E0FCCF843609F065C0A2D0082F10E071
:1000F000102F00279DD0082B9BD0682E580180EC34
:10010000B81AE12C30E4F32E67019FEFC91AD90A1F
:100110008FD0F70180837601CA14DB04A9F79DD044
:100120007E01F5E46F121EC08DE984BF709200104D
:10013000E0E0F0E4CE16DF0651F480910210837007
:10014000E1F781E09DE994BF80930010AACFCF0131
:1001500001962081FC01EC0FFD1FE150FC42208341
:10016000FC01E8CFEDE9E4BF9092001070E060E0A0
:10017000CE0152D0809102108370E1F781E0FDE959
:10018000F4BF80930010F4BF80920010C12C90E463
:10019000D92EF601619171916F01C7013DD0F2E056
:1001A000EF0EF11C02501109A1F78091021083702B
:1001B000E1F7C7CF8437F1F43BD0082F10E0102FC0
:1001C000002736D0082B34D0D82E47D07E01E6E465
:1001D000DE1208C0F70187917F0123D00150110979
:1001E000C9F75FCFDC5E888121961BD001501109D1
:1001F000D1F757CF853751F430D08091001111D00D
:10020000809101110ED0809102114ACF813509F001
:100210005ACF81E019D057CFFC010B01E89511248A
:1002200008959091A40895FFFCCF8093A2080895AB
:100230008091A40887FFFCCF9091A1088091A0082D
:1002400092FD01C0A89508959091010190FDFCCF09
:1002500098ED94BF809300010895EADF803219F091
:1002600081E0F2DFFFCF84E1DCCFCF93C82FE0DF66
:10027000C150E9F7CF91F1CF8DE984BF60930010B1
:0A028000809102108370E1F70895E9
:0203FE000009F4
:00000001FF
