:10000000112480914000811105C098ED21E094BF3A
:100010002093410083FD02C0843020F4809340008F
:100020008CBBEEC088E0B7D0209A289A1092E205E7
:100030008AE88093680883E08093670880EC809367
:100040006608079A87E08150A1F4A895FF24FA94E6
:1000500096D08134D1F493D0182FA6D081E01238F5
:1000600021F089E1113809F083E082D080E180D06D
:10007000EFCF179A2AE238E6A8959091640897FD89
:10008000E5CF21503109C1F7DECF823419F484E184
:1000900093D0ECCF853411F485E0FACF853531F477
:1000A0006ED0C82F6CD0D82F7FD0E0CF863521F40A
:1000B00084E082D080E0D9CF843681F560D0082FEB
:1000C00010E0102F00275BD0082B59D01059C12CFD
:1000D00020E7D22E56018FEFA81AB80A50D0F601A9
:1000E00080836501A016B106A9F75ED088E06BD0C9
:1000F000FE01F058F08282E066D0E0E0F0E7AE1654
:10010000BF0609F4B3CFCF0101962081FC01EC0FAB
:10011000FD1FE150F04F2083FC01F1CF8437B9F48B
:100120002ED0082F10E0102F002729D0082B27D021
:10013000D82E3AD0F6E4DF1208C0D0588881219634
:1001400017D001501109D1F791CFDC5EF7CF853779
:1001500049F42AD08EE10CD08091011109D0809110
:10016000021183CF813509F09FCF81E014D09CCF5D
:100170009091640895FFFCCF809362080895809168
:10018000640887FFFCCF909161088091600892FD20
:1001900001C0A89508959091010190FDFCCF98EDC4
:1001A00094BF809300010895EADF803219F081E066
:1001B000F2DFFFCF84E1DCCFCF93C82FE0DFC15067
:1001C000E9F7CF91F1CF9DE994BF1092001094BF51
:0601D00080930010089569
:0401FA00F8950895D7
:0201FE000119E5
:00000001FF
