:10000000112480914000282F30E083FD03C02D7F14
:10001000232B31F4809340008CBB80E0BBD0F0C038
:10002000A895409A489A1092E2058AE88093280899
:1000300083E08093270880EC809326088BE0AAD089
:10004000079A87E0815069F4A895FF24FA9496D026
:100050008134D9F493D0182FA6D0123871F480E0EF
:1000600010C0179A2AE238E6A8959091240897FDC7
:10007000ECCF21503109C1F7E5CF89E0113809F003
:1000800083E075D080E173D0E2CF823419F484E14B
:1000900092D0F8CF853411F485E0FACF853531F46C
:1000A0006DD0C82F6BD0D82F7ED0ECCF863519F409
:1000B00084E081D0D4CF843681F560D0082F10E061
:1000C000102F00275BD0082B59D01059C12C20E7E6
:1000D000D22E56018FEFA81AB80A50D0F6018083AD
:1000E0006501A016B106A9F75ED088E06BD0FE01CD
:1000F000F058F08282E066D0E0E0F0E7AE16BF068E
:1001000009F4C0CFCF0101962081FC01EC0FFD1F47
:10011000E150F04F2083FC01F1CF8437B9F42ED0A9
:10012000082F10E0102F002729D0082B27D0D82E19
:100130003AD0F6E4DF1208C0D0588881219617D053
:1001400001501109D1F79ECFDC5EF7CF853749F416
:100150002AD08EE10CD08091011109D0809102113A
:1001600090CF813509F0A0CF81E014D09DCF909140
:10017000240895FFFCCF80932208089580912408DD
:1001800087FFFCCF909121088091200892FD01C04B
:10019000A89508959091010190FDFCCF98ED94BF32
:1001A000809300010895EADF803219F081E0F2DFE8
:1001B000FFCF84E1DCCFCF93C82FE0DFC150E9F758
:1001C000CF91F1CF9DE994BF1092001094BF80931E
:0401D000001008957E
:0201FE000009F6
:00000001FF
